{
  "contractName": "MedicalRecord",
  "abi": [
    {
      "constant": false,
      "inputs": [
        {
          "name": "link",
          "type": "string"
        },
        {
          "name": "_hash",
          "type": "string"
        }
      ],
      "name": "storeRecord",
      "outputs": [
        {
          "name": "success",
          "type": "bool"
        }
      ],
      "payable": false,
      "stateMutability": "nonpayable",
      "type": "function"
    },
    {
      "constant": false,
      "inputs": [],
      "name": "deleteRecord",
      "outputs": [
        {
          "name": "success",
          "type": "bool"
        }
      ],
      "payable": false,
      "stateMutability": "nonpayable",
      "type": "function"
    },
    {
      "constant": false,
      "inputs": [
        {
          "name": "newLink",
          "type": "string"
        },
        {
          "name": "newHash",
          "type": "string"
        }
      ],
      "name": "updateRecord",
      "outputs": [
        {
          "name": "success",
          "type": "bool"
        }
      ],
      "payable": false,
      "stateMutability": "nonpayable",
      "type": "function"
    },
    {
      "constant": true,
      "inputs": [],
      "name": "getHash",
      "outputs": [
        {
          "name": "",
          "type": "string"
        }
      ],
      "payable": false,
      "stateMutability": "view",
      "type": "function"
    },
    {
      "anonymous": false,
      "inputs": [],
      "name": "getLink",
      "type": "function",
      "constant": true,
      "outputs": [
        {
          "name": "",
          "type": "string"
        }
      ],
      "payable": false,
      "stateMutability": "view"
    },
    {
      "anonymous": false,
      "inputs": [],
      "name": "RecordUpdated",
      "type": "event"
    },
    {
      "anonymous": false,
      "inputs": [],
      "name": "RecordStored",
      "type": "event"
    }
  ],
  "bytecode": "0x6060604052341561000f57600080fd5b610a268061001e6000396000f30060606040526004361061006d576000357c0100000000000000000000000000000000000000000000000000000000900463ffffffff1680636386953f1461007257806365426a981461012a57806367822aae14610157578063d13319c41461020f578063e2d84e231461029d575b600080fd5b341561007d57600080fd5b610110600480803590602001908201803590602001908080601f0160208091040260200160405190810160405280939291908181526020018383808284378201915050505050509190803590602001908201803590602001908080601f0160208091040260200160405190810160405280939291908181526020018383808284378201915050505050509190505061032b565b604051808215151515815260200191505060405180910390f35b341561013557600080fd5b61013d6104c4565b604051808215151515815260200191505060405180910390f35b341561016257600080fd5b6101f5600480803590602001908201803590602001908080601f0160208091040260200160405190810160405280939291908181526020018383808284378201915050505050509190803590602001908201803590602001908080601f01602080910402602001604051908101604052809392919081815260200183838082843782019150505050505091905050610581565b604051808215151515815260200191505060405180910390f35b341561021a57600080fd5b6102226106bf565b6040518080602001828103825283818151815260200191508051906020019080838360005b83811015610262578082015181840152602081019050610247565b50505050905090810190601f16801561028f5780820380516001836020036101000a031916815260200191505b509250505060405180910390f35b34156102a857600080fd5b6102b0610800565b6040518080602001828103825283818151815260200191508051906020019080838360005b838110156102f05780820151818401526020810190506102d5565b50505050905090810190601f16801561031d5780820380516001836020036101000a031916815260200191505b509250505060405180910390f35b60008060003373ffffffffffffffffffffffffffffffffffffffff1673ffffffffffffffffffffffffffffffffffffffff16815260200190815260200160002060010160009054906101000a900460ff1615151561038857600080fd5b826000803373ffffffffffffffffffffffffffffffffffffffff1673ffffffffffffffffffffffffffffffffffffffff16815260200190815260200160002060000190805190602001906103dd929190610941565b50816000803373ffffffffffffffffffffffffffffffffffffffff1673ffffffffffffffffffffffffffffffffffffffff1681526020019081526020016000206002019080519060200190610433929190610941565b5060016000803373ffffffffffffffffffffffffffffffffffffffff1673ffffffffffffffffffffffffffffffffffffffff16815260200190815260200160002060010160006101000a81548160ff0219169083151502179055507f8bd875dfad3dd0e723cef5935f38b68592d03ca69ade7544d3facdaa6762124860405160405180910390a16001905092915050565b60008060003373ffffffffffffffffffffffffffffffffffffffff1673ffffffffffffffffffffffffffffffffffffffff16815260200190815260200160002060010160009054906101000a900460ff16151561052057600080fd5b60008060003373ffffffffffffffffffffffffffffffffffffffff1673ffffffffffffffffffffffffffffffffffffffff16815260200190815260200160002060010160006101000a81548160ff0219169083151502179055506001905090565b60008060003373ffffffffffffffffffffffffffffffffffffffff1673ffffffffffffffffffffffffffffffffffffffff16815260200190815260200160002060010160009054906101000a900460ff1615156105dd57600080fd5b826000803373ffffffffffffffffffffffffffffffffffffffff1673ffffffffffffffffffffffffffffffffffffffff1681526020019081526020016000206000019080519060200190610632929190610941565b50816000803373ffffffffffffffffffffffffffffffffffffffff1673ffffffffffffffffffffffffffffffffffffffff1681526020019081526020016000206002019080519060200190610688929190610941565b507f4bd1a8e833e6120ab8980a2156eb1334ae01fc049a3420f8e0111c3ca999810460405160405180910390a16001905092915050565b6106c76109c1565b6000803373ffffffffffffffffffffffffffffffffffffffff1673ffffffffffffffffffffffffffffffffffffffff16815260200190815260200160002060010160009054906101000a900460ff16151561072157600080fd5b6000803373ffffffffffffffffffffffffffffffffffffffff1673ffffffffffffffffffffffffffffffffffffffff1681526020019081526020016000206002018054600181600116156101000203166002900480601f0160208091040260200160405190810160405280929190818152602001828054600181600116156101000203166002900480156107f65780601f106107cb576101008083540402835291602001916107f6565b820191906000526020600020905b8154815290600101906020018083116107d957829003601f168201915b5050505050905090565b6108086109c1565b6000803373ffffffffffffffffffffffffffffffffffffffff1673ffffffffffffffffffffffffffffffffffffffff16815260200190815260200160002060010160009054906101000a900460ff16151561086257600080fd5b6000803373ffffffffffffffffffffffffffffffffffffffff1673ffffffffffffffffffffffffffffffffffffffff1681526020019081526020016000206000018054600181600116156101000203166002900480601f0160208091040260200160405190810160405280929190818152602001828054600181600116156101000203166002900480156109375780601f1061090c57610100808354040283529160200191610937565b820191906000526020600020905b81548152906001019060200180831161091a57829003601f168201915b5050505050905090565b828054600181600116156101000203166002900490600052602060002090601f016020900481019282601f1061098257805160ff19168380011785556109b0565b828001600101855582156109b0579182015b828111156109af578251825591602001919060010190610994565b5b5090506109bd91906109d5565b5090565b602060405190810160405280600081525090565b6109f791905b808211156109f35760008160009055506001016109db565b5090565b905600a165627a7a7230582068443990d40fcf22ee96448635bf5c2e82592c767638023731c202fa4a1295830029",
  "source": "pragma solidity ^0.4.0;\ncontract MedicalRecord {\n    \n    struct Record {\n        string link;\n        bool isEntity;\n        string _hash;\n    }\n    mapping(address => Record) private db;\n    function storeRecord(string link, string _hash) public returns(bool success) {\n        require(!db[msg.sender].isEntity);\n        db[msg.sender].link = link;\n        db[msg.sender]._hash = _hash;\n        db[msg.sender].isEntity = true;\n        RecordStored();\n        return true;\n    }\n    function updateRecord(string newLink, string newHash) public returns(bool success) {\n        require(db[msg.sender].isEntity);\n        db[msg.sender].link = newLink;\n        db[msg.sender]._hash = newHash;\n        RecordUpdated();\n        return true;\n    }\n    function deleteRecord() public returns(bool success) {\n        require(db[msg.sender].isEntity);\n        db[msg.sender].isEntity = false;\n        return true;\n    }\n    function getLink() view public returns(string) {\n        require(db[msg.sender].isEntity);\n        return db[msg.sender].link;\n    }\n    function getHash() view public returns(string) {\n        require(db[msg.sender].isEntity);\n        return db[msg.sender]._hash;\n    }\n    event RecordUpdated();\n    event RecordStored();\n}",
  "sourcePath": "/media/trung/Data/Documents/Blockchain/my_demo/contracts/MedicalRecord.sol",
  "compiler": {
    "name": "solc",
    "version": "0.4.18+commit.9cf6e910.Emscripten.clang"
  },
  "schemaVersion": "1.0.1",
  "updatedAt": "2017-11-25T20:47:09.158Z"
}